{
  "_format": "hh-sol-artifact-1",
  "contractName": "NFTMarketPlace",
  "sourceName": "contracts/NFTMarketPlace.sol",
  "abi": [
    {
      "inputs": [
        {
          "internalType": "uint256",
          "name": "_listingPrice",
          "type": "uint256"
        }
      ],
      "stateMutability": "nonpayable",
      "type": "constructor"
    },
    {
      "inputs": [
        {
          "internalType": "uint256",
          "name": "_itemId",
          "type": "uint256"
        }
      ],
      "name": "buyNft",
      "outputs": [],
      "stateMutability": "payable",
      "type": "function"
    },
    {
      "inputs": [
        {
          "internalType": "uint256",
          "name": "_itemId",
          "type": "uint256"
        },
        {
          "internalType": "uint256",
          "name": "_price",
          "type": "uint256"
        }
      ],
      "name": "changeNftPrice",
      "outputs": [],
      "stateMutability": "nonpayable",
      "type": "function"
    },
    {
      "inputs": [
        {
          "internalType": "uint256",
          "name": "_itemId",
          "type": "uint256"
        }
      ],
      "name": "delistNft",
      "outputs": [],
      "stateMutability": "nonpayable",
      "type": "function"
    },
    {
      "inputs": [
        {
          "internalType": "uint256",
          "name": "_itemId",
          "type": "uint256"
        }
      ],
      "name": "isSold",
      "outputs": [
        {
          "internalType": "bool",
          "name": "",
          "type": "bool"
        }
      ],
      "stateMutability": "view",
      "type": "function"
    },
    {
      "inputs": [
        {
          "internalType": "uint256",
          "name": "",
          "type": "uint256"
        }
      ],
      "name": "items",
      "outputs": [
        {
          "internalType": "address",
          "name": "nftContract",
          "type": "address"
        },
        {
          "internalType": "uint256",
          "name": "tokenId",
          "type": "uint256"
        },
        {
          "internalType": "uint256",
          "name": "price",
          "type": "uint256"
        },
        {
          "internalType": "address payable",
          "name": "seller",
          "type": "address"
        },
        {
          "internalType": "bool",
          "name": "sold",
          "type": "bool"
        }
      ],
      "stateMutability": "view",
      "type": "function"
    },
    {
      "inputs": [
        {
          "internalType": "address",
          "name": "_nftAddress",
          "type": "address"
        },
        {
          "internalType": "uint256",
          "name": "_tokenId",
          "type": "uint256"
        },
        {
          "internalType": "uint256",
          "name": "_price",
          "type": "uint256"
        }
      ],
      "name": "listNft",
      "outputs": [
        {
          "internalType": "uint256",
          "name": "",
          "type": "uint256"
        }
      ],
      "stateMutability": "payable",
      "type": "function"
    },
    {
      "inputs": [],
      "name": "listingPrice",
      "outputs": [
        {
          "internalType": "uint256",
          "name": "",
          "type": "uint256"
        }
      ],
      "stateMutability": "view",
      "type": "function"
    },
    {
      "inputs": [
        {
          "internalType": "uint256",
          "name": "_itemId",
          "type": "uint256"
        }
      ],
      "name": "nftPrice",
      "outputs": [
        {
          "internalType": "uint256",
          "name": "",
          "type": "uint256"
        }
      ],
      "stateMutability": "view",
      "type": "function"
    }
  ],
  "bytecode": "0x608060405234801561001057600080fd5b5060405162001148380380620011488339818101604052810190610034919061007c565b80600081905550506100a9565b600080fd5b6000819050919050565b61005981610046565b811461006457600080fd5b50565b60008151905061007681610050565b92915050565b60006020828403121561009257610091610041565b5b60006100a084828501610067565b91505092915050565b61108f80620000b96000396000f3fe60806040526004361061007b5760003560e01c80636de299141161004e5780636de299141461012b578063bfb231d214610168578063c78f19f9146101a9578063c922b17c146101d45761007b565b80630110a1761461008057806314eb055d146100bd578063243adbdd146100e65780634e79148314610102575b600080fd5b34801561008c57600080fd5b506100a760048036038101906100a29190610b0d565b610204565b6040516100b49190610b55565b60405180910390f35b3480156100c957600080fd5b506100e460048036038101906100df9190610b70565b610240565b005b61010060048036038101906100fb9190610b0d565b61035e565b005b34801561010e57600080fd5b5061012960048036038101906101249190610b0d565b610545565b005b34801561013757600080fd5b50610152600480360381019061014d9190610b0d565b610787565b60405161015f9190610bbf565b60405180910390f35b34801561017457600080fd5b5061018f600480360381019061018a9190610b0d565b6107b6565b6040516101a0959493929190610c3c565b60405180910390f35b3480156101b557600080fd5b506101be610849565b6040516101cb9190610bbf565b60405180910390f35b6101ee60048036038101906101e99190610cbb565b61084f565b6040516101fb9190610bbf565b60405180910390f35b60006001828154811061021a57610219610d0e565b5b906000526020600020906004020160030160149054906101000a900460ff169050919050565b60006001838154811061025657610255610d0e565b5b906000526020600020906004020190503373ffffffffffffffffffffffffffffffffffffffff168160030160009054906101000a900473ffffffffffffffffffffffffffffffffffffffff1673ffffffffffffffffffffffffffffffffffffffff16146102f8576040517f08c379a00000000000000000000000000000000000000000000000000000000081526004016102ef90610d9a565b60405180910390fd5b600015158160030160149054906101000a900460ff16151514610350576040517f08c379a000000000000000000000000000000000000000000000000000000000815260040161034790610e06565b60405180910390fd5b818160020181905550505050565b60006001828154811061037457610373610d0e565b5b90600052602060002090600402019050600015158160030160149054906101000a900460ff161515146103dc576040517f08c379a00000000000000000000000000000000000000000000000000000000081526004016103d390610e06565b60405180910390fd5b80600201543414610422576040517f08c379a000000000000000000000000000000000000000000000000000000000815260040161041990610e98565b60405180910390fd5b60018160030160146101000a81548160ff0219169083151502179055508060030160009054906101000a900473ffffffffffffffffffffffffffffffffffffffff1673ffffffffffffffffffffffffffffffffffffffff166108fc349081150290604051600060405180830381858888f193505050501580156104a9573d6000803e3d6000fd5b508060000160009054906101000a900473ffffffffffffffffffffffffffffffffffffffff1673ffffffffffffffffffffffffffffffffffffffff166323b872dd303384600101546040518463ffffffff1660e01b815260040161050f93929190610eb8565b600060405180830381600087803b15801561052957600080fd5b505af115801561053d573d6000803e3d6000fd5b505050505050565b60006001828154811061055b5761055a610d0e565b5b906000526020600020906004020190503373ffffffffffffffffffffffffffffffffffffffff168160030160009054906101000a900473ffffffffffffffffffffffffffffffffffffffff1673ffffffffffffffffffffffffffffffffffffffff16146105fd576040517f08c379a00000000000000000000000000000000000000000000000000000000081526004016105f490610f3b565b60405180910390fd5b600015158160030160149054906101000a900460ff16151514610655576040517f08c379a000000000000000000000000000000000000000000000000000000000815260040161064c90610e06565b60405180910390fd5b8060000160009054906101000a900473ffffffffffffffffffffffffffffffffffffffff1673ffffffffffffffffffffffffffffffffffffffff166323b872dd303384600101546040518463ffffffff1660e01b81526004016106ba93929190610eb8565b600060405180830381600087803b1580156106d457600080fd5b505af11580156106e8573d6000803e3d6000fd5b5050505060018281548110610700576106ff610d0e565b5b9060005260206000209060040201600080820160006101000a81549073ffffffffffffffffffffffffffffffffffffffff0219169055600182016000905560028201600090556003820160006101000a81549073ffffffffffffffffffffffffffffffffffffffff02191690556003820160146101000a81549060ff021916905550505050565b60006001828154811061079d5761079c610d0e565b5b9060005260206000209060040201600201549050919050565b600181815481106107c657600080fd5b90600052602060002090600402016000915090508060000160009054906101000a900473ffffffffffffffffffffffffffffffffffffffff16908060010154908060020154908060030160009054906101000a900473ffffffffffffffffffffffffffffffffffffffff16908060030160149054906101000a900460ff16905085565b60005481565b6000808211610893576040517f08c379a000000000000000000000000000000000000000000000000000000000815260040161088a90610fa7565b60405180910390fd5b60005434146108d7576040517f08c379a00000000000000000000000000000000000000000000000000000000081526004016108ce90611039565b60405180910390fd5b6108e16002610aae565b60006108ed6002610ac4565b90508473ffffffffffffffffffffffffffffffffffffffff166323b872dd3330876040518463ffffffff1660e01b815260040161092c93929190610eb8565b600060405180830381600087803b15801561094657600080fd5b505af115801561095a573d6000803e3d6000fd5b5050505060016040518060a001604052808773ffffffffffffffffffffffffffffffffffffffff1681526020018681526020018581526020013373ffffffffffffffffffffffffffffffffffffffff16815260200160001515815250908060018154018082558091505060019003906000526020600020906004020160009091909190915060008201518160000160006101000a81548173ffffffffffffffffffffffffffffffffffffffff021916908373ffffffffffffffffffffffffffffffffffffffff160217905550602082015181600101556040820151816002015560608201518160030160006101000a81548173ffffffffffffffffffffffffffffffffffffffff021916908373ffffffffffffffffffffffffffffffffffffffff16021790555060808201518160030160146101000a81548160ff0219169083151502179055505050809150509392505050565b6001816000016000828254019250508190555050565b600081600001549050919050565b600080fd5b6000819050919050565b610aea81610ad7565b8114610af557600080fd5b50565b600081359050610b0781610ae1565b92915050565b600060208284031215610b2357610b22610ad2565b5b6000610b3184828501610af8565b91505092915050565b60008115159050919050565b610b4f81610b3a565b82525050565b6000602082019050610b6a6000830184610b46565b92915050565b60008060408385031215610b8757610b86610ad2565b5b6000610b9585828601610af8565b9250506020610ba685828601610af8565b9150509250929050565b610bb981610ad7565b82525050565b6000602082019050610bd46000830184610bb0565b92915050565b600073ffffffffffffffffffffffffffffffffffffffff82169050919050565b6000610c0582610bda565b9050919050565b610c1581610bfa565b82525050565b6000610c2682610bda565b9050919050565b610c3681610c1b565b82525050565b600060a082019050610c516000830188610c0c565b610c5e6020830187610bb0565b610c6b6040830186610bb0565b610c786060830185610c2d565b610c856080830184610b46565b9695505050505050565b610c9881610bfa565b8114610ca357600080fd5b50565b600081359050610cb581610c8f565b92915050565b600080600060608486031215610cd457610cd3610ad2565b5b6000610ce286828701610ca6565b9350506020610cf386828701610af8565b9250506040610d0486828701610af8565b9150509250925092565b7f4e487b7100000000000000000000000000000000000000000000000000000000600052603260045260246000fd5b600082825260208201905092915050565b7f4f6e6c792073656c6c65722063616e206368616e676520707269636500000000600082015250565b6000610d84601c83610d3d565b9150610d8f82610d4e565b602082019050919050565b60006020820190508181036000830152610db381610d77565b9050919050565b7f4974656d20616c726561647920736f6c64000000000000000000000000000000600082015250565b6000610df0601183610d3d565b9150610dfb82610dba565b602082019050919050565b60006020820190508181036000830152610e1f81610de3565b9050919050565b7f5072696365206d75737420626520657175616c20746f206974656d207072696360008201527f6500000000000000000000000000000000000000000000000000000000000000602082015250565b6000610e82602183610d3d565b9150610e8d82610e26565b604082019050919050565b60006020820190508181036000830152610eb181610e75565b9050919050565b6000606082019050610ecd6000830186610c0c565b610eda6020830185610c0c565b610ee76040830184610bb0565b949350505050565b7f4f6e6c792073656c6c65722063616e2064656c69737400000000000000000000600082015250565b6000610f25601683610d3d565b9150610f3082610eef565b602082019050919050565b60006020820190508181036000830152610f5481610f18565b9050919050565b7f5072696365206d757374206265206174206c6561737420312077656900000000600082015250565b6000610f91601c83610d3d565b9150610f9c82610f5b565b602082019050919050565b60006020820190508181036000830152610fc081610f84565b9050919050565b7f5072696365206d75737420626520657175616c20746f206c697374696e67207060008201527f7269636500000000000000000000000000000000000000000000000000000000602082015250565b6000611023602483610d3d565b915061102e82610fc7565b604082019050919050565b6000602082019050818103600083015261105281611016565b905091905056fea26469706673582212201de3d367a16cc264339167c87f4fa73093b5efc012d5d2b9eb2b7e2224b9ba0464736f6c63430008090033",
  "linkReferences": {},
  "deployedLinkReferences": {}
}